:100000000C942A000C9434000C9434000C943400AA
:100010000C9434000C9434000C9434000C94340090
:100020000C9434000C9434000C9434000C94340080
:100030000C9434000C9434000C9434000C94340070
:100040000C9434000C9434000C9434000C94340060
:100050000C94340011241FBECFE5D8E0DEBFCDBF25
:100060000E946C000C9484000C940000613029F410
:10007000E82FF0E08FEF81830895E82FF0E0118200
:100080000895E82FF0E0828121E030E002C0220FE5
:10009000331F6A95E2F7282B22830895E82FF0E0BA
:1000A000828121E030E002C0220F331F6A95E2F71F
:1000B0002095282322830895E82FF0E0208181E015
:1000C00090E002C0880F991F6A95E2F7822311F031
:1000D00081E0089580E0089560E083E30E943600A7
:1000E00061E086E30E94360062E083E30E945C00E8
:1000F000882329F060E086E30E944E00F5CF60E09F
:0C01000086E30E944100F0CFF894FFCF8E
:00000001FF
